:100000000C9430000C947A090C947A090C947A09B7
:100010000C947A090C947A090C947A090C947A0954
:100020000C947A090C947A090C947A090C947A0944
:100030000C947A090C947A090C947A090C947A0934
:100040000C947A090C947A090C947A090C947A0924
:100050000C947A0900600070001302007000718037
:1000600011241FBECFE5D8E0DEBFCDBFE4E5F0E050
:1000700040E017C0B591A59135912591059107FDF7
:100080000CC095918591EF01F92FE82F05900D9205
:10009000A217B307D9F7FE0104C01D92A217B30738
:1000A000E1F7E036F40731F70E9437080C943C0979
:0400B000F894FFCFF2
:1000B400436F727265637420506173730054727974
:1000C40020416761696E00454E54455220504153AA
:1000D400530054656D706572617475726520004DCE
:1000E4004F44453A4E6F726D616C004D4F44453A32
:1000F400486F74004D4F44453A4669726500454E59
:0A010400544552205041535320008F
:10010E00CF92DF92EF92FF92CF93DF9381E00E9426
:10011E00E908BC0180E090E00E949A0720E030ECF4
:10012E004FE754E40E946F0920E030E048EC52E4BF
:10013E000E9473090E9408086B017C01EB0160E0CC
:10014E0080E00E94D10866ED70E080E00E949D087C
:10015E00CE31D105E0F580917000811138C060E09C
:10016E0081E00E94D10863EE70E080E00E949D085D
:10017E0060E080E00E94D10866ED70E080E00E94B1
:10018E009D08C6012C2D392F40E050E060E070E054
:10019E0080E090E00E94DF0141E062E082E00E9498
:1001AE00C50441E067E082E00E94C50441E060E0E2
:1001BE0083E00E94C5042FEF85EA9EE02150804027
:1001CE009040E1F700C000000E946B09EAC0C60132
:1001DE004E97889790F58091700081112EC060E047
:1001EE000E94D10866ED70E080E00E949D08CE016D
:1001FE00282F392F40E050E060E070E080E090E082
:10020E000E94DF0140E062E082E00E94C50440E00F
:10021E0067E082E00E94C50440E060E083E00E9457
:10022E00C5042FEF85EA9EE0215080409040E1F713
:10023E0000C000000E946B09B4C0C601865491092B
:10024E004097B0F580917000811132C060E00E943D
:10025E00D10866ED70E080E00E949D08CE01282F47
:10026E00392F40E050E060E070E080E090E00E94C6
:10027E00DF0160E081E00E94D1086FEE70E080E067
:10028E000E949D0841E061E083E00E94C5042FEFCB
:10029E0089E698E1215080409040E1F700C00000CF
:1002AE0040E061E083E00E94C5040E946B0979C0C2
:1002BE0026E5C21AD10889E0C816D10440F580910E
:1002CE007000811124C060E00E94D10866ED70E0DC
:1002DE0080E00E949D08CE01282F392F40E050E08B
:1002EE0060E070E080E090E00E94DF019FEF25EA81
:1002FE008EE0915020408040E1F700C0000040E0C9
:10030E0061E083E00E94C5040E946B094AC0CF35AC
:10031E00D10528F480917000813009F042C060E070
:10032E0080E00E94D10866ED70E080E00E949D089A
:10033E00CE01282F392F40E050E060E070E080E0E1
:10034E0090E00E94DF0160E081E00E94D10868EF3A
:10035E0070E080E00E949D089FEF29E688E19150B1
:10036E0020408040E1F700C0000041E061E083E002
:10037E000E94C50441E060E082E00E94C5040E9434
:10038E006B099FEF25EA8EE0915020408040E1F707
:10039E0000C0000062E071E080E00E949D080E94B3
:1003AE000803DF91CF91FF90EF90DF90CF900895EB
:1003BE002F923F924F925F926F927F928F929F9267
:1003CE00AF92BF92CF92DF92EF92FF920F931F9355
:1003DE00CF93DF93CDB7DEB760970FB6F894DEBF3D
:1003EE000FBECDBF29833A834B835C836D837E839F
:1003FE00382E292EA0E00E94300921F480E30E94BD
:10040E005707E6C029813A814B815C816D817E81DF
:10041E00A0E00E943009ACF48DE20E9457072981BA
:10042E003A814B815C816D817E81832D922D0E945C
:10043E00120929833A834B835C836D837E83382E26
:10044E00292E29813A814B815C816D817E81832D9C
:10045E00922DA0E00E94300909F094F5B9C02D85C7
:10046E00392D482D572D662D752D8E85942D01E035
:10047E000E94B808822E932E48875F83B62FA72F2F
:10048E00F82FE92F02E00E94B808A22EB32EC42E38
:10049E00D52EE62EF72E082F192F282D392D48850B
:1004AE005F816B2F7A2F8F2F9E2F0E9447092D87EA
:1004BE00932E842E752E662E572E8E87492E0FC0A4
:1004CE0081E01F82188619861A861B861E861C8658
:1004DE008D87912C812C712C612C512C412CAD844B
:1004EE00B92CC82CD72CE62CF52C0E85142D298171
:1004FE003A814B815C816D817E81832D922D0E948C
:10050E002409A0E00E94300909F0A9CF9F828886B5
:10051E0079866A865B864C860F2EFAE0AF2EF02D1A
:10052E00B12CC12CD12CE12CF12C00E010E02D854A
:10053E003F81488559856A857B858E859C850E947D
:10054E002409422E532E642E752E862E972E888BBE
:10055E009F872D873F83488759876A877B878E873A
:10056E009C87A22EB32EC42ED52EE62EF72E082F44
:10057E00192F29813A814B815C816D817E81832D7A
:10058E00922D0E94240980E3820F0E94570708894A
:10059E001F8529813A814B815C816D817E81832DFE
:1005AE00922D0E94220929833A834B835C836D83AB
:1005BE007E83382E292E242D352D462D572D682D30
:1005CE00792D802F912FA1E00E94300909F0A4CF40
:1005DE0060960FB6F894DEBF0FBECDBFDF91CF9100
:1005EE001F910F91FF90EF90DF90CF90BF90AF9043
:1005FE009F908F907F906F905F904F903F902F9035
:02060E0008954D
:100610001F93CF93DF9300D000D0CDB7DEB710E0AB
:100620002CC00E9472062FEF30E792E0215030403C
:100630009040E1F700C000000BC00E9472062FEF4F
:1006400030E792E0215030409040E1F700C00000D8
:10065000882399F3E1E0F0E0EC0FFD1FE10FF11DBD
:1006600080832FEF30E792E0215030409040E1F757
:1006700000C000000E9457071F5F143090F21981DC
:100680001133A1F58A81823389F58B81833371F52A
:100690008C81843359F50E946B0964EB70E080E033
:1006A0000E949D082FEF35EA8EE0215030408040B7
:1006B000E1F700C000000E946B090E9472069FEFE4
:1006C00020E732E0915020403040E1F700C00000C8
:1006D0000E94570740E061E083E00E94C50440E0CB
:1006E00060E082E00E94C50410927000113349F46A
:1006F0008A81823331F48B81833319F48C81843382
:1007000089F141E061E083E00E94C50441E060E0DE
:1007100082E00E94C5048FEF93EC29E08150904065
:100720002040E1F700C000000E946B0963E081E017
:100730000E94D10861EC70E080E00E949D083FEFCC
:1007400089E698E1315080409040E1F700C0000018
:100750000E946B096BEC70E080E00E949D0881E0D4
:10076000809370000F900F900F900F90DF91CF91BA
:040770001F91089538
:10077400813061F138F0823009F44CC0833009F4DF
:100784006DC00895413099F028F0423049F043306B
:10079400B9F008958BB3607F8F70682B6BBB08959D
:1007A4008BB362956F70807F682B6BBB089580E17B
:1007B400689FB00111248BB38F70682B6BBB0895B5
:1007C4008BB36F70807F682B6BBB0895413099F0B9
:1007D40028F0423049F04330B9F0089588B3607F7F
:1007E4008F70682B68BB089588B362956F70807FA3
:1007F400682B68BB089580E1689FB001112488B319
:100804008F70682B68BB089588B36F70807F682BE6
:1008140068BB0895413099F028F0423049F04330E4
:10082400B9F0089585B3607F8F70682B65BB089518
:1008340085B362956F70807F682B65BB089580E1F6
:10084400689FB001112485B38F70682B65BB089530
:1008540085B36F70807F682B65BB0895413099F034
:1008640028F0423049F04330B9F0089582B3607FF4
:100874008F70682B62BB089582B362956F70807F1E
:10088400682B62BB089580E1689FB001112482B394
:100894008F70682B62BB089582B36F70807F682B62
:0408A40062BB089596
:1008A800442319F04130C9F10895813091F028F0BE
:1008B8008230D9F0833029F108952AB381E090E09D
:1008C80002C0880F991F6A95E2F7809582238ABB38
:1008D800089527B381E090E002C0880F991F6A95B8
:1008E800E2F78095822387BB089524B381E090E0E6
:1008F80002C0880F991F6A95E2F78095822384BB0E
:10090800089521B381E090E002C0880F991F6A958D
:10091800E2F78095822381BB0895813089F028F021
:100928008230C9F0833011F108952AB381E090E054
:1009380002C0880F991F6A95E2F7822B8ABB089537
:1009480027B381E090E002C0880F991F6A95E2F70B
:10095800822B87BB089524B381E090E002C0880F02
:10096800991F6A95E2F7822B84BB089521B381E031
:1009780090E002C0880F991F6A95E2F7822B81BB2D
:020988000895D0
:10098A00442319F04130C9F10895813091F028F0DB
:10099A008230D9F0833029F108952BB381E090E0B9
:1009AA0002C0880F991F6A95E2F7809582238BBB54
:1009BA00089528B381E090E002C0880F991F6A95D4
:1009CA00E2F78095822388BB089525B381E090E001
:1009DA0002C0880F991F6A95E2F78095822385BB2A
:1009EA00089522B381E090E002C0880F991F6A95AA
:1009FA00E2F78095822382BB0895813089F028F03E
:100A0A008230C9F0833011F108952BB381E090E070
:100A1A0002C0880F991F6A95E2F7822B8BBB089553
:100A2A0028B381E090E002C0880F991F6A95E2F727
:100A3A00822B88BB089525B381E090E002C0880F1D
:100A4A00991F6A95E2F7822B85BB089522B381E04C
:100A5A0090E002C0880F991F6A95E2F7822B82BB49
:020A6A000895ED
:100A6C0010C00E94570958F00E94500940F029F418
:100A7C005F3F29F00C94650951110C945F090C949B
:100A8C0077090E947B0868F39923B1F3552391F3FE
:100A9C00951B550BBB27AA2762177307840738F0E1
:100AAC009F5F5F4F220F331F441FAA1FA9F335D03E
:100ABC000E2E3AF0E0E832D091505040E695001CF2
:100ACC00CAF72BD0FE2F29D0660F771F881FBB1FAC
:100ADC00261737074807AB07B0E809F0BB0B802D8A
:100AEC00BF01FF2793585F4F3AF09E3F510578F0B6
:100AFC000C9465090C945F095F3FE4F3983ED4F3C2
:100B0C00869577956795B795F7959F5FC9F7880F89
:100B1C00911D9695879597F90895E1E0660F771FDB
:100B2C00881FBB1F621773078407BA0720F0621B6C
:0E0B3C00730B840BBA0BEE1F88F7E09508953B
:100B4A000FC00E94500938F00E94570920F09523DF
:100B5A0011F00C9465090C94770911240C945F091F
:100B6A000E947B0870F3959FC1F3950F50E0551FC3
:100B7A00629FF001729FBB27F00DB11D639FAA27E8
:100B8A00F00DB11DAA1F649F6627B00DA11D661F37
:100B9A00829F2227B00DA11D621F739FB00DA11D58
:100BAA00621F839FA00D611D221F749F3327A00D12
:100BBA00611D231F849F600D211D822F762F6A2FAE
:100BCA0011249F5750409AF0F1F088234AF0EE0F13
:100BDA00FF1FBB1F661F771F881F91505040A9F740
:100BEA009E3F510580F00C9465090C945F095F3FA4
:100BFA00E4F3983ED4F3869577956795B795F7957C
:100C0A00E7959F5FC1F7FE2B880F911D96958795F3
:040C1A0097F90895A9
:100C1E008FEF99EF0197F1F700C0000041E061E01E
:100C2E0081E00E94540441E062E081E00E9454049D
:100C3E0041E063E081E00E94540441E064E080E022
:100C4E000E94540441E065E080E00E94540441E0BB
:100C5E0066E080E00E94540441E067E080E00E947C
:100C6E00540483E30E9414078FE99FE00197F1F784
:100C7E0000C0000082E30E9414078FE99FE00197F5
:100C8E00F1F700C0000088E20E9414078CE00E9479
:100C9E0014078FE99FE00197F1F700C0000081E093
:100CAE000E9414078FE39FE10197F1F700C0000047
:100CBE0086E00E9414078FE99FE00197F1F700C0CC
:100CCE00000082E00E9414078FE39FE10197F1F785
:060CDE0000C000000895B3
:100CE400CF93DF93A0E0B0E080E044C098B39D01CF
:100CF4002C5F3F4FE1E0F0E002C0EE0FFF1F2A95AA
:100D0400E2F72E2F2095922398BB40E050E02BC0B1
:100D140023B3BA016D5F7F4F30E0062E02C03595D4
:100D240027950A94E2F720FD1CC02FE738E391E0F1
:100D3400215030409040E1F700C0000023B330E080
:100D440002C0359527956A95E2F720FD0AC0EA01AD
:100D5400CC0FDD1FCC0FDD1FC05ADF4FCA0FDB1FC6
:100D640088814F5F5F4F4430510594F298B3E92B6B
:100D7400E8BB1196A430B1050CF4B8CFDF91CF9144
:020D84000895D0
:100D860088249924F401E401B0E49F93AA279A15D4
:100D96008B049C04ED05FE05CF05D007A10798F44A
:100DA600AD2FDC2FCF2FFE2FE92D982C892E982FD3
:100DB600872F762F652F542F432F322F2227B85097
:100DC60031F7BF9127C01B2EBF91BB27220F331FC0
:100DD600441F551F661F771F881F991F881C991C63
:100DE600EE1FFF1FCC1FDD1FAA1FBB1F8A149B040B
:100DF600EC05FD05CE05DF05A007B10748F08A180A
:100E06009B08EC09FD09CE09DF09A00BB10B216097
:100E16001A94E1F62EF49401AF01BE01CD01000C47
:020E260008952D
:100E2800CF93C82F40E061E081E00E94C50440E014
:100E380062E081E00E94C50440E063E081E00E9436
:100E4800C5048FE99FE00197F1F700C0000041E079
:100E580063E081E00E94C50440E06C2F80E00E94BE
:100E6800BA0340E063E081E00E94C5048FE99FE097
:100E78000197F1F700C0000041E063E081E00E94C3
:100E8800C50441E06C2F80E00E94BA0340E063E0B3
:100E980081E00E94C5048FE99FE00197F1F700C047
:060EA8000000CF91089547
:100EAE00CF93C82F41E061E081E00E94C50440E08D
:100EBE0062E081E00E94C50440E063E081E00E94B0
:100ECE00C5048FE99FE00197F1F700C0000041E0F3
:100EDE0063E081E00E94C50440E06C2F80E00E9438
:100EEE00BA0340E063E081E00E94C5048FE99FE011
:100EFE000197F1F700C0000041E063E081E00E943D
:100F0E00C50441E06C2F80E00E94BA0340E063E02C
:100F1E0081E00E94C5048FE99FE00197F1F700C0C0
:060F2E000000CF910895C0
:100F3400E89409C097FB3EF490958095709561956F
:100F44007F4F8F4F9F4F9923A9F0F92F96E9BB2725
:100F54009395F695879577956795B795F111F8CFA1
:100F6400FAF4BB0F11F460FF1BC06F5F7F4F8F4F0C
:100F74009F4F16C0882311F096E911C0772321F002
:100F84009EE8872F762F05C0662371F096E8862F9A
:100F940070E060E02AF09A95660F771F881FDAF7F1
:0A0FA400880F9695879597F9089538
:100FAE0087B3806187BB87B3806287BB87B380645A
:100FBE0087BB87B3806887BB88B3806188BB88B3E3
:100FCE00806288BB88B3806488BB88B3806888BB26
:100FDE0084B3877F84BB84B38F7E84BB84B38F7DC1
:100FEE0084BB84B38F7B84BB85B3886085BB85B39C
:100FFE00806185BB85B3806285BB85B3806485BB0C
:02100E00089543
:101010000E94830888F09F5798F0B92F9927B751FD
:10102000B0F0E1F0660F771F881F991F1AF0BA958C
:10103000C9F714C0B13091F00E945E09B1E0089583
:101040000C945E09672F782F8827B85F39F0B93F75
:10105000CCF3869577956795B395D9F73EF490953F
:0E1060008095709561957F4F8F4F9F4F08953B
:10106E0041E062E082E00E94540441E067E082E0E9
:10107E000E94540441E060E083E00E94540441E089
:10108E0061E083E00E94540441E060E082E00E944F
:10109E0054040E940F060E94D7070E9459080E940E
:0410AE008700FDCFEB
:1010B20087B1806487B987B18F7787B987B18F7D10
:1010C20087B986B1816086B986B1826086B986B1F8
:1010D200846086B986B1806286B980B791B78F7114
:1010E200992791BF80BF86B1806886B986B1886032
:0410F20086B908951E
:1010F60057FD9058440F551F59F05F3F71F04795C3
:10110600880F97FB991F61F09F3F79F087950895A7
:10111600121613061406551FF2CF4695F1DF08C0C6
:10112600161617061806991FF1CF869571056105E3
:04113600089408957C
:10113A00CF92DF92EF92CF936B01E82EC0E003C00B
:10114A000E945707CF5FAE2DC6018C0F911DA11DBE
:10115A00FC018491A7FD80818111F2CFCF91EF909C
:06116A00DF90CF90089514
:101170000F93083090F0982F872F762F652F542FDC
:10118000432F322F22270850F4CF220F331F441F42
:10119000551F661F771F881F991F0A95B2F70F9179
:0211A0000895B0
:1011A200CF93DF9300D0CDB7DEB790E8998390EC70
:1011B2009A83E1E0F0E0EC0FFD1FE80FF11D808162
:1011C200860F0E9414070F900F90DF91CF91089520
:1011D2009AB321E030E0082E02C0220F331F0A9496
:1011E200E2F7209529232ABB97B1907E892B87B9F4
:1011F20086B1806486B9349BFECF84B195B10895DF
:10120200092E0394000C11F4882352F0BB0F40F412
:10121200BF2B11F460FF04C06F5F7F4F8F4F9F4F52
:0212220008952D
:101224006095709580959095309540955095219551
:101234003F4F4F4F5F4F6F4F7F4F8F4F9F4F0895DB
:10124400689401C0E8948F929F92CF93DF930E9499
:0C125400C306DF91CF919F908F9008950A
:101260000024A7FD00942A173005400550056005AD
:0812700070058005900508954A
:10127800EC010E947F090E947E09CE010E9480092C
:06128800CE010E947C096A
:10128E002A0D3B1D4C1D5D1D6E1D7F1D801F911F68
:02129E000895B1
:0E12A00000240A94161617061806090608956B
:0E12AE0000240A94121613061406050608956D
:0E12BC00E894BB2766277727CB0197F90895A2
:0C12CA0097F99F6780E870E060E00895ED
:0812D60081E00E941407089555
:0812DE000E9436050C94010981
:0812E6000E94A5050C9401090A
:0612EE009FEF80EC089563
:0412F4000C94000056
:0412F8000E945800F8
:0212FC00089553
:0212FE00089551
:0213000008954E
:101302003738392F3435362A3132332D6F303D2B71
:00000001FF
